{
  "contractName": "DamChain",
  "abi": [
    {
      "constant": true,
      "inputs": [
        {
          "name": "",
          "type": "address"
        }
      ],
      "name": "organizations",
      "outputs": [
        {
          "name": "name",
          "type": "string"
        }
      ],
      "payable": false,
      "stateMutability": "view",
      "type": "function"
    },
    {
      "constant": false,
      "inputs": [
        {
          "name": "name",
          "type": "string"
        }
      ],
      "name": "setOrganizationName",
      "outputs": [],
      "payable": false,
      "stateMutability": "nonpayable",
      "type": "function"
    },
    {
      "constant": false,
      "inputs": [
        {
          "name": "_org",
          "type": "address"
        },
        {
          "name": "_docHash",
          "type": "bytes32"
        },
        {
          "name": "_v",
          "type": "uint8"
        },
        {
          "name": "_r",
          "type": "bytes32"
        },
        {
          "name": "_s",
          "type": "bytes32"
        }
      ],
      "name": "addDocument",
      "outputs": [],
      "payable": false,
      "stateMutability": "nonpayable",
      "type": "function"
    },
    {
      "constant": true,
      "inputs": [
        {
          "name": "_hash",
          "type": "bytes32"
        },
        {
          "name": "_v",
          "type": "uint8"
        },
        {
          "name": "_r",
          "type": "bytes32"
        },
        {
          "name": "_s",
          "type": "bytes32"
        },
        {
          "name": "_org",
          "type": "address"
        }
      ],
      "name": "verifySignature",
      "outputs": [
        {
          "name": "",
          "type": "bool"
        }
      ],
      "payable": false,
      "stateMutability": "view",
      "type": "function"
    }
  ],
  "bytecode": "0x6060604052341561000f57600080fd5b6106ca8061001e6000396000f300606060405260043610610062576000357c0100000000000000000000000000000000000000000000000000000000900463ffffffff1680635a1f74061461006757806396f74e8814610136578063a044ed9114610193578063de871a9a14610217575b600080fd5b341561007257600080fd5b61009e600480803573ffffffffffffffffffffffffffffffffffffffff16906020019091905050610283565b60405180806020018281038252838181546001816001161561010002031660029004815260200191508054600181600116156101000203166002900480156101275780601f106100fc57610100808354040283529160200191610127565b820191906000526020600020905b81548152906001019060200180831161010a57829003601f168201915b50509250505060405180910390f35b341561014157600080fd5b610191600480803590602001908201803590602001908080601f016020809104026020016040519081016040528093929190818152602001838380828437820191505050505050919050506102a0565b005b341561019e57600080fd5b6101fd60048080356000191690602001909190803560ff16906020019091908035600019169060200190919080356000191690602001909190803573ffffffffffffffffffffffffffffffffffffffff169060200190919050506102f9565b604051808215151515815260200191505060405180910390f35b341561022257600080fd5b610281600480803573ffffffffffffffffffffffffffffffffffffffff169060200190919080356000191690602001909190803560ff169060200190919080356000191690602001909190803560001916906020019091905050610474565b005b600060205280600052604060002060009150905080600001905081565b806000803373ffffffffffffffffffffffffffffffffffffffff1673ffffffffffffffffffffffffffffffffffffffff16815260200190815260200160002060000190805190602001906102f5929190610592565b5050565b6000610303610612565b60006040805190810160405280601c81526020017f19457468657265756d205369676e6564204d6573736167653a0a333200000000815250915081886040518083805190602001908083835b602083101515610374578051825260208201915060208101905060208303925061034f565b6001836020036101000a038019825116818451168082178552505050505050905001826000191660001916815260200192505050604051809103902090508373ffffffffffffffffffffffffffffffffffffffff16600182898989604051600081526020016040526000604051602001526040518085600019166000191681526020018460ff1660ff16815260200183600019166000191681526020018260001916600019168152602001945050505050602060405160208103908084039060008661646e5a03f1151561044757600080fd5b50506020604051035173ffffffffffffffffffffffffffffffffffffffff16149250505095945050505050565b8473ffffffffffffffffffffffffffffffffffffffff163373ffffffffffffffffffffffffffffffffffffffff161480156104dc57508473ffffffffffffffffffffffffffffffffffffffff16600073ffffffffffffffffffffffffffffffffffffffff1614155b15156104e757600080fd5b6104f484848484896102f9565b15156104ff57600080fd5b6000808673ffffffffffffffffffffffffffffffffffffffff1673ffffffffffffffffffffffffffffffffffffffff16815260200190815260200160002060010180548060010182816105529190610626565b9160005260206000209001600060206040519081016040528088600019168152509091909150600082015181600001906000191690555050505050505050565b828054600181600116156101000203166002900490600052602060002090601f016020900481019282601f106105d357805160ff1916838001178555610601565b82800160010185558215610601579182015b828111156106005782518255916020019190600101906105e5565b5b50905061060e9190610652565b5090565b602060405190810160405280600081525090565b81548183558181151161064d5781836000526020600020918201910161064c9190610677565b5b505050565b61067491905b80821115610670576000816000905550600101610658565b5090565b90565b61069b91905b80821115610697576000808201600090555060010161067d565b5090565b905600a165627a7a72305820cdaaf2ba189fe4cc5cdf83211f7cd28fd1de5fa1a44b912e8748539cb0698cce0029",
  "source": "pragma solidity ^0.4.17;\n\ncontract DamChain {\n    struct Organization {\n        string name;\n        Document[] documents;\n    }\n\n    struct Document {\n        bytes32 docHash;\n    }\n\n    mapping(address => Organization) public organizations;\n\n\n    function setOrganizationName(string name) public {\n        organizations[msg.sender].name = name;\n    }\n\n    function addDocument(address _org, bytes32 _docHash, uint8 _v, bytes32 _r, bytes32 _s) public {\n        require(msg.sender == _org && address(0) != _org);\n        require(verifySignature(_docHash, _v, _r, _s, _org));\n\n        organizations[_org].documents.push(Document(_docHash));\n    }\n\n    //https://ethereum.stackexchange.com/questions/15364/ecrecover-from-geth-and-web3-eth-sign\n    function verifySignature(bytes32 _hash, uint8 _v, bytes32 _r, bytes32 _s, address _org) constant returns(bool) {\n        bytes memory prefix = \"\\x19Ethereum Signed Message:\\n32\";\n        bytes32 prefixedHash = keccak256(prefix, _hash);\n        return ecrecover(prefixedHash, _v, _r, _s) == _org;\n    }\n}",
  "sourcePath": "/home/julian/blockathon/DamChain/contracts/DamChain.sol",
  "compiler": {
    "name": "solc",
    "version": "0.4.19+commit.c4cbbb05.Emscripten.clang"
  },
  "schemaVersion": "1.0.1",
  "updatedAt": "2018-02-03T22:38:49.371Z"
}